{
  "_format": "hh-sol-artifact-1",
  "contractName": "CommunitasNFTL1",
  "sourceName": "contracts/L1.sol",
  "abi": [
    {
      "inputs": [
        {
          "internalType": "address",
          "name": "_l2Target",
          "type": "address"
        },
        {
          "internalType": "address",
          "name": "_inbox",
          "type": "address"
        }
      ],
      "stateMutability": "nonpayable",
      "type": "constructor"
    },
    {
      "inputs": [],
      "name": "ERC721EnumerableForbiddenBatchMint",
      "type": "error"
    },
    {
      "inputs": [
        {
          "internalType": "address",
          "name": "sender",
          "type": "address"
        },
        {
          "internalType": "uint256",
          "name": "tokenId",
          "type": "uint256"
        },
        {
          "internalType": "address",
          "name": "owner",
          "type": "address"
        }
      ],
      "name": "ERC721IncorrectOwner",
      "type": "error"
    },
    {
      "inputs": [
        {
          "internalType": "address",
          "name": "operator",
          "type": "address"
        },
        {
          "internalType": "uint256",
          "name": "tokenId",
          "type": "uint256"
        }
      ],
      "name": "ERC721InsufficientApproval",
      "type": "error"
    },
    {
      "inputs": [
        {
          "internalType": "address",
          "name": "approver",
          "type": "address"
        }
      ],
      "name": "ERC721InvalidApprover",
      "type": "error"
    },
    {
      "inputs": [
        {
          "internalType": "address",
          "name": "operator",
          "type": "address"
        }
      ],
      "name": "ERC721InvalidOperator",
      "type": "error"
    },
    {
      "inputs": [
        {
          "internalType": "address",
          "name": "owner",
          "type": "address"
        }
      ],
      "name": "ERC721InvalidOwner",
      "type": "error"
    },
    {
      "inputs": [
        {
          "internalType": "address",
          "name": "receiver",
          "type": "address"
        }
      ],
      "name": "ERC721InvalidReceiver",
      "type": "error"
    },
    {
      "inputs": [
        {
          "internalType": "address",
          "name": "sender",
          "type": "address"
        }
      ],
      "name": "ERC721InvalidSender",
      "type": "error"
    },
    {
      "inputs": [
        {
          "internalType": "uint256",
          "name": "tokenId",
          "type": "uint256"
        }
      ],
      "name": "ERC721NonexistentToken",
      "type": "error"
    },
    {
      "inputs": [
        {
          "internalType": "address",
          "name": "owner",
          "type": "address"
        },
        {
          "internalType": "uint256",
          "name": "index",
          "type": "uint256"
        }
      ],
      "name": "ERC721OutOfBoundsIndex",
      "type": "error"
    },
    {
      "inputs": [
        {
          "internalType": "address",
          "name": "owner",
          "type": "address"
        }
      ],
      "name": "OwnableInvalidOwner",
      "type": "error"
    },
    {
      "inputs": [
        {
          "internalType": "address",
          "name": "account",
          "type": "address"
        }
      ],
      "name": "OwnableUnauthorizedAccount",
      "type": "error"
    },
    {
      "anonymous": false,
      "inputs": [
        {
          "indexed": true,
          "internalType": "address",
          "name": "owner",
          "type": "address"
        },
        {
          "indexed": true,
          "internalType": "address",
          "name": "approved",
          "type": "address"
        },
        {
          "indexed": true,
          "internalType": "uint256",
          "name": "tokenId",
          "type": "uint256"
        }
      ],
      "name": "Approval",
      "type": "event"
    },
    {
      "anonymous": false,
      "inputs": [
        {
          "indexed": true,
          "internalType": "address",
          "name": "owner",
          "type": "address"
        },
        {
          "indexed": true,
          "internalType": "address",
          "name": "operator",
          "type": "address"
        },
        {
          "indexed": false,
          "internalType": "bool",
          "name": "approved",
          "type": "bool"
        }
      ],
      "name": "ApprovalForAll",
      "type": "event"
    },
    {
      "anonymous": false,
      "inputs": [
        {
          "indexed": true,
          "internalType": "address",
          "name": "previousOwner",
          "type": "address"
        },
        {
          "indexed": true,
          "internalType": "address",
          "name": "newOwner",
          "type": "address"
        }
      ],
      "name": "OwnershipTransferred",
      "type": "event"
    },
    {
      "anonymous": false,
      "inputs": [
        {
          "indexed": true,
          "internalType": "uint256",
          "name": "ticketId",
          "type": "uint256"
        }
      ],
      "name": "RetryableTicketCreated",
      "type": "event"
    },
    {
      "anonymous": false,
      "inputs": [
        {
          "indexed": true,
          "internalType": "address",
          "name": "from",
          "type": "address"
        },
        {
          "indexed": true,
          "internalType": "address",
          "name": "to",
          "type": "address"
        },
        {
          "indexed": true,
          "internalType": "uint256",
          "name": "tokenId",
          "type": "uint256"
        }
      ],
      "name": "Transfer",
      "type": "event"
    },
    {
      "inputs": [
        {
          "internalType": "address",
          "name": "to",
          "type": "address"
        },
        {
          "internalType": "uint256",
          "name": "tokenId",
          "type": "uint256"
        }
      ],
      "name": "approve",
      "outputs": [],
      "stateMutability": "nonpayable",
      "type": "function"
    },
    {
      "inputs": [
        {
          "internalType": "address",
          "name": "owner",
          "type": "address"
        }
      ],
      "name": "balanceOf",
      "outputs": [
        {
          "internalType": "uint256",
          "name": "",
          "type": "uint256"
        }
      ],
      "stateMutability": "view",
      "type": "function"
    },
    {
      "inputs": [
        {
          "internalType": "uint256",
          "name": "tokenId",
          "type": "uint256"
        },
        {
          "internalType": "uint256",
          "name": "maxSubmissionCost",
          "type": "uint256"
        },
        {
          "internalType": "uint256",
          "name": "maxGas",
          "type": "uint256"
        },
        {
          "internalType": "uint256",
          "name": "gasPriceBid",
          "type": "uint256"
        }
      ],
      "name": "bridgeToL2",
      "outputs": [
        {
          "internalType": "uint256",
          "name": "",
          "type": "uint256"
        }
      ],
      "stateMutability": "payable",
      "type": "function"
    },
    {
      "inputs": [
        {
          "internalType": "uint256",
          "name": "tokenId",
          "type": "uint256"
        }
      ],
      "name": "burn",
      "outputs": [],
      "stateMutability": "nonpayable",
      "type": "function"
    },
    {
      "inputs": [
        {
          "internalType": "uint256",
          "name": "tokenId",
          "type": "uint256"
        }
      ],
      "name": "getApproved",
      "outputs": [
        {
          "internalType": "address",
          "name": "",
          "type": "address"
        }
      ],
      "stateMutability": "view",
      "type": "function"
    },
    {
      "inputs": [],
      "name": "inbox",
      "outputs": [
        {
          "internalType": "contract IInbox",
          "name": "",
          "type": "address"
        }
      ],
      "stateMutability": "view",
      "type": "function"
    },
    {
      "inputs": [
        {
          "internalType": "address",
          "name": "owner",
          "type": "address"
        },
        {
          "internalType": "address",
          "name": "operator",
          "type": "address"
        }
      ],
      "name": "isApprovedForAll",
      "outputs": [
        {
          "internalType": "bool",
          "name": "",
          "type": "bool"
        }
      ],
      "stateMutability": "view",
      "type": "function"
    },
    {
      "inputs": [],
      "name": "l2Target",
      "outputs": [
        {
          "internalType": "address",
          "name": "",
          "type": "address"
        }
      ],
      "stateMutability": "view",
      "type": "function"
    },
    {
      "inputs": [],
      "name": "mint",
      "outputs": [
        {
          "internalType": "uint256",
          "name": "",
          "type": "uint256"
        }
      ],
      "stateMutability": "nonpayable",
      "type": "function"
    },
    {
      "inputs": [
        {
          "internalType": "address",
          "name": "receiver",
          "type": "address"
        },
        {
          "internalType": "uint256",
          "name": "tokenId",
          "type": "uint256"
        }
      ],
      "name": "mintFromBridge",
      "outputs": [],
      "stateMutability": "nonpayable",
      "type": "function"
    },
    {
      "inputs": [],
      "name": "name",
      "outputs": [
        {
          "internalType": "string",
          "name": "",
          "type": "string"
        }
      ],
      "stateMutability": "view",
      "type": "function"
    },
    {
      "inputs": [],
      "name": "owner",
      "outputs": [
        {
          "internalType": "address",
          "name": "",
          "type": "address"
        }
      ],
      "stateMutability": "view",
      "type": "function"
    },
    {
      "inputs": [
        {
          "internalType": "uint256",
          "name": "tokenId",
          "type": "uint256"
        }
      ],
      "name": "ownerOf",
      "outputs": [
        {
          "internalType": "address",
          "name": "",
          "type": "address"
        }
      ],
      "stateMutability": "view",
      "type": "function"
    },
    {
      "inputs": [],
      "name": "renounceOwnership",
      "outputs": [],
      "stateMutability": "nonpayable",
      "type": "function"
    },
    {
      "inputs": [
        {
          "internalType": "address",
          "name": "from",
          "type": "address"
        },
        {
          "internalType": "address",
          "name": "to",
          "type": "address"
        },
        {
          "internalType": "uint256",
          "name": "tokenId",
          "type": "uint256"
        }
      ],
      "name": "safeTransferFrom",
      "outputs": [],
      "stateMutability": "nonpayable",
      "type": "function"
    },
    {
      "inputs": [
        {
          "internalType": "address",
          "name": "from",
          "type": "address"
        },
        {
          "internalType": "address",
          "name": "to",
          "type": "address"
        },
        {
          "internalType": "uint256",
          "name": "tokenId",
          "type": "uint256"
        },
        {
          "internalType": "bytes",
          "name": "data",
          "type": "bytes"
        }
      ],
      "name": "safeTransferFrom",
      "outputs": [],
      "stateMutability": "nonpayable",
      "type": "function"
    },
    {
      "inputs": [
        {
          "internalType": "address",
          "name": "operator",
          "type": "address"
        },
        {
          "internalType": "bool",
          "name": "approved",
          "type": "bool"
        }
      ],
      "name": "setApprovalForAll",
      "outputs": [],
      "stateMutability": "nonpayable",
      "type": "function"
    },
    {
      "inputs": [
        {
          "internalType": "bytes4",
          "name": "interfaceId",
          "type": "bytes4"
        }
      ],
      "name": "supportsInterface",
      "outputs": [
        {
          "internalType": "bool",
          "name": "",
          "type": "bool"
        }
      ],
      "stateMutability": "view",
      "type": "function"
    },
    {
      "inputs": [],
      "name": "symbol",
      "outputs": [
        {
          "internalType": "string",
          "name": "",
          "type": "string"
        }
      ],
      "stateMutability": "view",
      "type": "function"
    },
    {
      "inputs": [
        {
          "internalType": "uint256",
          "name": "index",
          "type": "uint256"
        }
      ],
      "name": "tokenByIndex",
      "outputs": [
        {
          "internalType": "uint256",
          "name": "",
          "type": "uint256"
        }
      ],
      "stateMutability": "view",
      "type": "function"
    },
    {
      "inputs": [],
      "name": "tokenCounter",
      "outputs": [
        {
          "internalType": "uint256",
          "name": "",
          "type": "uint256"
        }
      ],
      "stateMutability": "view",
      "type": "function"
    },
    {
      "inputs": [
        {
          "internalType": "address",
          "name": "owner",
          "type": "address"
        },
        {
          "internalType": "uint256",
          "name": "index",
          "type": "uint256"
        }
      ],
      "name": "tokenOfOwnerByIndex",
      "outputs": [
        {
          "internalType": "uint256",
          "name": "",
          "type": "uint256"
        }
      ],
      "stateMutability": "view",
      "type": "function"
    },
    {
      "inputs": [
        {
          "internalType": "uint256",
          "name": "tokenId",
          "type": "uint256"
        }
      ],
      "name": "tokenURI",
      "outputs": [
        {
          "internalType": "string",
          "name": "",
          "type": "string"
        }
      ],
      "stateMutability": "view",
      "type": "function"
    },
    {
      "inputs": [],
      "name": "totalSupply",
      "outputs": [
        {
          "internalType": "uint256",
          "name": "",
          "type": "uint256"
        }
      ],
      "stateMutability": "view",
      "type": "function"
    },
    {
      "inputs": [
        {
          "internalType": "address",
          "name": "from",
          "type": "address"
        },
        {
          "internalType": "address",
          "name": "to",
          "type": "address"
        },
        {
          "internalType": "uint256",
          "name": "tokenId",
          "type": "uint256"
        }
      ],
      "name": "transferFrom",
      "outputs": [],
      "stateMutability": "nonpayable",
      "type": "function"
    },
    {
      "inputs": [
        {
          "internalType": "address",
          "name": "newOwner",
          "type": "address"
        }
      ],
      "name": "transferOwnership",
      "outputs": [],
      "stateMutability": "nonpayable",
      "type": "function"
    },
    {
      "inputs": [
        {
          "internalType": "address",
          "name": "_l2Target",
          "type": "address"
        }
      ],
      "name": "updatel2Target",
      "outputs": [],
      "stateMutability": "nonpayable",
      "type": "function"
    }
  ],
  "bytecode": "0x60806040523480156200001157600080fd5b50604051620038243803806200382483398181016040528101906200003791906200030b565b336040518060400160405280600d81526020017f436f6d6d756e697461734e4654000000000000000000000000000000000000008152506040518060400160405280600481526020017f434e4654000000000000000000000000000000000000000000000000000000008152508160009081620000b59190620005cc565b508060019081620000c79190620005cc565b505050600073ffffffffffffffffffffffffffffffffffffffff168173ffffffffffffffffffffffffffffffffffffffff16036200013f5760006040517f1e4fbdf7000000000000000000000000000000000000000000000000000000008152600401620001369190620006c4565b60405180910390fd5b6200015081620001db60201b60201c565b5081600c60006101000a81548173ffffffffffffffffffffffffffffffffffffffff021916908373ffffffffffffffffffffffffffffffffffffffff16021790555080600d60006101000a81548173ffffffffffffffffffffffffffffffffffffffff021916908373ffffffffffffffffffffffffffffffffffffffff1602179055505050620006e1565b6000600a60009054906101000a900473ffffffffffffffffffffffffffffffffffffffff16905081600a60006101000a81548173ffffffffffffffffffffffffffffffffffffffff021916908373ffffffffffffffffffffffffffffffffffffffff1602179055508173ffffffffffffffffffffffffffffffffffffffff168173ffffffffffffffffffffffffffffffffffffffff167f8be0079c531659141344cd1fd0a4f28419497f9722a3daafe3b4186f6b6457e060405160405180910390a35050565b600080fd5b600073ffffffffffffffffffffffffffffffffffffffff82169050919050565b6000620002d382620002a6565b9050919050565b620002e581620002c6565b8114620002f157600080fd5b50565b6000815190506200030581620002da565b92915050565b60008060408385031215620003255762000324620002a1565b5b60006200033585828601620002f4565b92505060206200034885828601620002f4565b9150509250929050565b600081519050919050565b7f4e487b7100000000000000000000000000000000000000000000000000000000600052604160045260246000fd5b7f4e487b7100000000000000000000000000000000000000000000000000000000600052602260045260246000fd5b60006002820490506001821680620003d457607f821691505b602082108103620003ea57620003e96200038c565b5b50919050565b60008190508160005260206000209050919050565b60006020601f8301049050919050565b600082821b905092915050565b600060088302620004547fffffffffffffffffffffffffffffffffffffffffffffffffffffffffffffffff8262000415565b62000460868362000415565b95508019841693508086168417925050509392505050565b6000819050919050565b6000819050919050565b6000620004ad620004a7620004a18462000478565b62000482565b62000478565b9050919050565b6000819050919050565b620004c9836200048c565b620004e1620004d882620004b4565b84845462000422565b825550505050565b600090565b620004f8620004e9565b62000505818484620004be565b505050565b5b818110156200052d5762000521600082620004ee565b6001810190506200050b565b5050565b601f8211156200057c576200054681620003f0565b620005518462000405565b8101602085101562000561578190505b62000579620005708562000405565b8301826200050a565b50505b505050565b600082821c905092915050565b6000620005a16000198460080262000581565b1980831691505092915050565b6000620005bc83836200058e565b9150826002028217905092915050565b620005d78262000352565b67ffffffffffffffff811115620005f357620005f26200035d565b5b620005ff8254620003bb565b6200060c82828562000531565b600060209050601f8311600181146200064457600084156200062f578287015190505b6200063b8582620005ae565b865550620006ab565b601f1984166200065486620003f0565b60005b828110156200067e5784890151825560018201915060208501945060208101905062000657565b868310156200069e57848901516200069a601f8916826200058e565b8355505b6001600288020188555050505b505050505050565b620006be81620002c6565b82525050565b6000602082019050620006db6000830184620006b3565b92915050565b61313380620006f16000396000f3fe60806040526004361061019c5760003560e01c80636fddc31a116100ec578063b88d4fde1161008a578063d082e38111610064578063d082e381146105dd578063e985e9c514610608578063f2fde38b14610645578063fb0e722b1461066e5761019c565b8063b88d4fde1461054c578063c2b530d614610575578063c87b56dd146105a05761019c565b80638da5cb5b116100c65780638da5cb5b146104a457806395d89b41146104cf578063a22cb465146104fa578063ae584918146105235761019c565b80636fddc31a1461042057806370a0823114610450578063715018a61461048d5761019c565b806318160ddd1161015957806342842e0e1161013357806342842e0e1461035457806342966c681461037d5780634f6ccce7146103a65780636352211e146103e35761019c565b806318160ddd146102c357806323b872dd146102ee5780632f745c59146103175761019c565b806301ffc9a7146101a157806306fdde03146101de578063081812fc14610209578063095ea7b3146102465780631249c58b1461026f578063158f39251461029a575b600080fd5b3480156101ad57600080fd5b506101c860048036038101906101c391906124ab565b610699565b6040516101d591906124f3565b60405180910390f35b3480156101ea57600080fd5b506101f3610713565b604051610200919061259e565b60405180910390f35b34801561021557600080fd5b50610230600480360381019061022b91906125f6565b6107a5565b60405161023d9190612664565b60405180910390f35b34801561025257600080fd5b5061026d600480360381019061026891906126ab565b6107c1565b005b34801561027b57600080fd5b506102846107d7565b60405161029191906126fa565b60405180910390f35b3480156102a657600080fd5b506102c160048036038101906102bc9190612715565b610808565b005b3480156102cf57600080fd5b506102d8610854565b6040516102e591906126fa565b60405180910390f35b3480156102fa57600080fd5b5061031560048036038101906103109190612742565b610861565b005b34801561032357600080fd5b5061033e600480360381019061033991906126ab565b610963565b60405161034b91906126fa565b60405180910390f35b34801561036057600080fd5b5061037b60048036038101906103769190612742565b610a0c565b005b34801561038957600080fd5b506103a4600480360381019061039f91906125f6565b610a2c565b005b3480156103b257600080fd5b506103cd60048036038101906103c891906125f6565b610a38565b6040516103da91906126fa565b60405180910390f35b3480156103ef57600080fd5b5061040a600480360381019061040591906125f6565b610aae565b6040516104179190612664565b60405180910390f35b61043a60048036038101906104359190612795565b610ac0565b60405161044791906126fa565b60405180910390f35b34801561045c57600080fd5b5061047760048036038101906104729190612715565b610ccb565b60405161048491906126fa565b60405180910390f35b34801561049957600080fd5b506104a2610d85565b005b3480156104b057600080fd5b506104b9610d99565b6040516104c69190612664565b60405180910390f35b3480156104db57600080fd5b506104e4610dc3565b6040516104f1919061259e565b60405180910390f35b34801561050657600080fd5b50610521600480360381019061051c9190612828565b610e55565b005b34801561052f57600080fd5b5061054a600480360381019061054591906126ab565b610e6b565b005b34801561055857600080fd5b50610573600480360381019061056e919061299d565b611108565b005b34801561058157600080fd5b5061058a61112d565b6040516105979190612664565b60405180910390f35b3480156105ac57600080fd5b506105c760048036038101906105c291906125f6565b611153565b6040516105d4919061259e565b60405180910390f35b3480156105e957600080fd5b506105f2611174565b6040516105ff91906126fa565b60405180910390f35b34801561061457600080fd5b5061062f600480360381019061062a9190612a20565b61117a565b60405161063c91906124f3565b60405180910390f35b34801561065157600080fd5b5061066c60048036038101906106679190612715565b61120e565b005b34801561067a57600080fd5b50610683611294565b6040516106909190612abf565b60405180910390f35b60007f780e9d63000000000000000000000000000000000000000000000000000000007bffffffffffffffffffffffffffffffffffffffffffffffffffffffff1916827bffffffffffffffffffffffffffffffffffffffffffffffffffffffff1916148061070c575061070b826112ba565b5b9050919050565b60606000805461072290612b09565b80601f016020809104026020016040519081016040528092919081815260200182805461074e90612b09565b801561079b5780601f106107705761010080835404028352916020019161079b565b820191906000526020600020905b81548152906001019060200180831161077e57829003601f168201915b5050505050905090565b60006107b08261139c565b506107ba82611424565b9050919050565b6107d382826107ce611461565b611469565b5050565b600080600b5490506107e9338261147b565b600b60008154809291906107fc90612b69565b91905055508091505090565b610810611574565b80600c60006101000a81548173ffffffffffffffffffffffffffffffffffffffff021916908373ffffffffffffffffffffffffffffffffffffffff16021790555050565b6000600880549050905090565b600073ffffffffffffffffffffffffffffffffffffffff168273ffffffffffffffffffffffffffffffffffffffff16036108d35760006040517f64a0ae920000000000000000000000000000000000000000000000000000000081526004016108ca9190612664565b60405180910390fd5b60006108e783836108e2611461565b6115fb565b90508373ffffffffffffffffffffffffffffffffffffffff168173ffffffffffffffffffffffffffffffffffffffff161461095d578382826040517f64283d7b00000000000000000000000000000000000000000000000000000000815260040161095493929190612bb1565b60405180910390fd5b50505050565b600061096e83610ccb565b82106109b35782826040517fa57d13dc0000000000000000000000000000000000000000000000000000000081526004016109aa929190612be8565b60405180910390fd5b600660008473ffffffffffffffffffffffffffffffffffffffff1673ffffffffffffffffffffffffffffffffffffffff168152602001908152602001600020600083815260200190815260200160002054905092915050565b610a2783838360405180602001604052806000815250611108565b505050565b610a3581611718565b50565b6000610a42610854565b8210610a88576000826040517fa57d13dc000000000000000000000000000000000000000000000000000000008152600401610a7f929190612be8565b60405180910390fd5b60088281548110610a9c57610a9b612c11565b5b90600052602060002001549050919050565b6000610ab98261139c565b9050919050565b60003373ffffffffffffffffffffffffffffffffffffffff16610ae28661179e565b73ffffffffffffffffffffffffffffffffffffffff1614610b38576040517f08c379a0000000000000000000000000000000000000000000000000000000008152600401610b2f90612c8c565b60405180910390fd5b610b4185611718565b600063ae58491860e01b3387604051602401610b5e929190612be8565b604051602081830303815290604052907bffffffffffffffffffffffffffffffffffffffffffffffffffffffff19166020820180517bffffffffffffffffffffffffffffffffffffffffffffffffffffffff838183161783525050505090506000600d60009054906101000a900473ffffffffffffffffffffffffffffffffffffffff1673ffffffffffffffffffffffffffffffffffffffff1663679b6ded34600c60009054906101000a900473ffffffffffffffffffffffffffffffffffffffff1660008a33338c8c8b6040518a63ffffffff1660e01b8152600401610c4c989796959493929190612d3c565b60206040518083038185885af1158015610c6a573d6000803e3d6000fd5b50505050506040513d601f19601f82011682018060405250810190610c8f9190612dd6565b9050807fde92b5b7839f4a2c640f5e3bbb66d415458dadc57a487b0c7fa562ed7c9c896f60405160405180910390a28092505050949350505050565b60008073ffffffffffffffffffffffffffffffffffffffff168273ffffffffffffffffffffffffffffffffffffffff1603610d3e5760006040517f89c62b64000000000000000000000000000000000000000000000000000000008152600401610d359190612664565b60405180910390fd5b600360008373ffffffffffffffffffffffffffffffffffffffff1673ffffffffffffffffffffffffffffffffffffffff168152602001908152602001600020549050919050565b610d8d611574565b610d9760006117db565b565b6000600a60009054906101000a900473ffffffffffffffffffffffffffffffffffffffff16905090565b606060018054610dd290612b09565b80601f0160208091040260200160405190810160405280929190818152602001828054610dfe90612b09565b8015610e4b5780601f10610e2057610100808354040283529160200191610e4b565b820191906000526020600020905b815481529060010190602001808311610e2e57829003601f168201915b5050505050905090565b610e67610e60611461565b83836118a1565b5050565b6000600d60009054906101000a900473ffffffffffffffffffffffffffffffffffffffff1673ffffffffffffffffffffffffffffffffffffffff1663e78cea926040518163ffffffff1660e01b8152600401602060405180830381865afa158015610eda573d6000803e3d6000fd5b505050506040513d601f19601f82011682018060405250810190610efe9190612e41565b90508073ffffffffffffffffffffffffffffffffffffffff163373ffffffffffffffffffffffffffffffffffffffff1614610f6e576040517f08c379a0000000000000000000000000000000000000000000000000000000008152600401610f6590612eba565b60405180910390fd5b60008173ffffffffffffffffffffffffffffffffffffffff1663ab5d89436040518163ffffffff1660e01b8152600401602060405180830381865afa158015610fbb573d6000803e3d6000fd5b505050506040513d601f19601f82011682018060405250810190610fdf9190612eef565b905060008173ffffffffffffffffffffffffffffffffffffffff166380648b026040518163ffffffff1660e01b8152600401602060405180830381865afa15801561102e573d6000803e3d6000fd5b505050506040513d601f19601f820116820180604052508101906110529190612eef565b9050600c60009054906101000a900473ffffffffffffffffffffffffffffffffffffffff1673ffffffffffffffffffffffffffffffffffffffff168173ffffffffffffffffffffffffffffffffffffffff16146110e4576040517f08c379a00000000000000000000000000000000000000000000000000000000081526004016110db90612f68565b60405180910390fd5b6001846110f19190612f88565b600b81905550611101858561147b565b5050505050565b611113848484610861565b61112761111e611461565b85858585611a10565b50505050565b600c60009054906101000a900473ffffffffffffffffffffffffffffffffffffffff1681565b606061115e8261139c565b506000611169611bc1565b905080915050919050565b600b5481565b6000600560008473ffffffffffffffffffffffffffffffffffffffff1673ffffffffffffffffffffffffffffffffffffffff16815260200190815260200160002060008373ffffffffffffffffffffffffffffffffffffffff1673ffffffffffffffffffffffffffffffffffffffff16815260200190815260200160002060009054906101000a900460ff16905092915050565b611216611574565b600073ffffffffffffffffffffffffffffffffffffffff168173ffffffffffffffffffffffffffffffffffffffff16036112885760006040517f1e4fbdf700000000000000000000000000000000000000000000000000000000815260040161127f9190612664565b60405180910390fd5b611291816117db565b50565b600d60009054906101000a900473ffffffffffffffffffffffffffffffffffffffff1681565b60007f80ac58cd000000000000000000000000000000000000000000000000000000007bffffffffffffffffffffffffffffffffffffffffffffffffffffffff1916827bffffffffffffffffffffffffffffffffffffffffffffffffffffffff1916148061138557507f5b5e139f000000000000000000000000000000000000000000000000000000007bffffffffffffffffffffffffffffffffffffffffffffffffffffffff1916827bffffffffffffffffffffffffffffffffffffffffffffffffffffffff1916145b80611395575061139482611be1565b5b9050919050565b6000806113a88361179e565b9050600073ffffffffffffffffffffffffffffffffffffffff168173ffffffffffffffffffffffffffffffffffffffff160361141b57826040517f7e27328900000000000000000000000000000000000000000000000000000000815260040161141291906126fa565b60405180910390fd5b80915050919050565b60006004600083815260200190815260200160002060009054906101000a900473ffffffffffffffffffffffffffffffffffffffff169050919050565b600033905090565b6114768383836001611c4b565b505050565b600073ffffffffffffffffffffffffffffffffffffffff168273ffffffffffffffffffffffffffffffffffffffff16036114ed5760006040517f64a0ae920000000000000000000000000000000000000000000000000000000081526004016114e49190612664565b60405180910390fd5b60006114fb838360006115fb565b9050600073ffffffffffffffffffffffffffffffffffffffff168173ffffffffffffffffffffffffffffffffffffffff161461156f5760006040517f73c6ac6e0000000000000000000000000000000000000000000000000000000081526004016115669190612664565b60405180910390fd5b505050565b61157c611461565b73ffffffffffffffffffffffffffffffffffffffff1661159a610d99565b73ffffffffffffffffffffffffffffffffffffffff16146115f9576115bd611461565b6040517f118cdaa70000000000000000000000000000000000000000000000000000000081526004016115f09190612664565b60405180910390fd5b565b600080611609858585611e10565b9050600073ffffffffffffffffffffffffffffffffffffffff168173ffffffffffffffffffffffffffffffffffffffff160361164d576116488461202a565b61168c565b8473ffffffffffffffffffffffffffffffffffffffff168173ffffffffffffffffffffffffffffffffffffffff161461168b5761168a8185612073565b5b5b600073ffffffffffffffffffffffffffffffffffffffff168573ffffffffffffffffffffffffffffffffffffffff16036116ce576116c98461215e565b61170d565b8473ffffffffffffffffffffffffffffffffffffffff168173ffffffffffffffffffffffffffffffffffffffff161461170c5761170b858561222f565b5b5b809150509392505050565b600061172760008360006115fb565b9050600073ffffffffffffffffffffffffffffffffffffffff168173ffffffffffffffffffffffffffffffffffffffff160361179a57816040517f7e27328900000000000000000000000000000000000000000000000000000000815260040161179191906126fa565b60405180910390fd5b5050565b60006002600083815260200190815260200160002060009054906101000a900473ffffffffffffffffffffffffffffffffffffffff169050919050565b6000600a60009054906101000a900473ffffffffffffffffffffffffffffffffffffffff16905081600a60006101000a81548173ffffffffffffffffffffffffffffffffffffffff021916908373ffffffffffffffffffffffffffffffffffffffff1602179055508173ffffffffffffffffffffffffffffffffffffffff168173ffffffffffffffffffffffffffffffffffffffff167f8be0079c531659141344cd1fd0a4f28419497f9722a3daafe3b4186f6b6457e060405160405180910390a35050565b600073ffffffffffffffffffffffffffffffffffffffff168273ffffffffffffffffffffffffffffffffffffffff160361191257816040517f5b08ba180000000000000000000000000000000000000000000000000000000081526004016119099190612664565b60405180910390fd5b80600560008573ffffffffffffffffffffffffffffffffffffffff1673ffffffffffffffffffffffffffffffffffffffff16815260200190815260200160002060008473ffffffffffffffffffffffffffffffffffffffff1673ffffffffffffffffffffffffffffffffffffffff16815260200190815260200160002060006101000a81548160ff0219169083151502179055508173ffffffffffffffffffffffffffffffffffffffff168373ffffffffffffffffffffffffffffffffffffffff167f17307eab39ab6107e8899845ad3d59bd9653f200f220920489ca2b5937696c3183604051611a0391906124f3565b60405180910390a3505050565b60008373ffffffffffffffffffffffffffffffffffffffff163b1115611bba578273ffffffffffffffffffffffffffffffffffffffff1663150b7a02868685856040518563ffffffff1660e01b8152600401611a6f9493929190612fbc565b6020604051808303816000875af1925050508015611aab57506040513d601f19601f82011682018060405250810190611aa8919061301d565b60015b611b2f573d8060008114611adb576040519150601f19603f3d011682016040523d82523d6000602084013e611ae0565b606091505b506000815103611b2757836040517f64a0ae92000000000000000000000000000000000000000000000000000000008152600401611b1e9190612664565b60405180910390fd5b805181602001fd5b63150b7a0260e01b7bffffffffffffffffffffffffffffffffffffffffffffffffffffffff1916817bffffffffffffffffffffffffffffffffffffffffffffffffffffffff191614611bb857836040517f64a0ae92000000000000000000000000000000000000000000000000000000008152600401611baf9190612664565b60405180910390fd5b505b5050505050565b60606040518060800160405280605081526020016130ae60509139905090565b60007f01ffc9a7000000000000000000000000000000000000000000000000000000007bffffffffffffffffffffffffffffffffffffffffffffffffffffffff1916827bffffffffffffffffffffffffffffffffffffffffffffffffffffffff1916149050919050565b8080611c845750600073ffffffffffffffffffffffffffffffffffffffff168273ffffffffffffffffffffffffffffffffffffffff1614155b15611db8576000611c948461139c565b9050600073ffffffffffffffffffffffffffffffffffffffff168373ffffffffffffffffffffffffffffffffffffffff1614158015611cff57508273ffffffffffffffffffffffffffffffffffffffff168173ffffffffffffffffffffffffffffffffffffffff1614155b8015611d125750611d10818461117a565b155b15611d5457826040517fa9fbf51f000000000000000000000000000000000000000000000000000000008152600401611d4b9190612664565b60405180910390fd5b8115611db657838573ffffffffffffffffffffffffffffffffffffffff168273ffffffffffffffffffffffffffffffffffffffff167f8c5be1e5ebec7d5bd14f71427d1e84f3dd0314c0f7b2291e5b200ac8c7c3b92560405160405180910390a45b505b836004600085815260200190815260200160002060006101000a81548173ffffffffffffffffffffffffffffffffffffffff021916908373ffffffffffffffffffffffffffffffffffffffff16021790555050505050565b600080611e1c8461179e565b9050600073ffffffffffffffffffffffffffffffffffffffff168373ffffffffffffffffffffffffffffffffffffffff1614611e5e57611e5d8184866122ba565b5b600073ffffffffffffffffffffffffffffffffffffffff168173ffffffffffffffffffffffffffffffffffffffff1614611eef57611ea0600085600080611c4b565b6001600360008373ffffffffffffffffffffffffffffffffffffffff1673ffffffffffffffffffffffffffffffffffffffff168152602001908152602001600020600082825403925050819055505b600073ffffffffffffffffffffffffffffffffffffffff168573ffffffffffffffffffffffffffffffffffffffff1614611f72576001600360008773ffffffffffffffffffffffffffffffffffffffff1673ffffffffffffffffffffffffffffffffffffffff168152602001908152602001600020600082825401925050819055505b846002600086815260200190815260200160002060006101000a81548173ffffffffffffffffffffffffffffffffffffffff021916908373ffffffffffffffffffffffffffffffffffffffff160217905550838573ffffffffffffffffffffffffffffffffffffffff168273ffffffffffffffffffffffffffffffffffffffff167fddf252ad1be2c89b69c2b068fc378daa952ba7f163c4a11628f55a4df523b3ef60405160405180910390a4809150509392505050565b6008805490506009600083815260200190815260200160002081905550600881908060018154018082558091505060019003906000526020600020016000909190919091505550565b600061207e83610ccb565b90506000600760008481526020019081526020016000205490506000600660008673ffffffffffffffffffffffffffffffffffffffff1673ffffffffffffffffffffffffffffffffffffffff168152602001908152602001600020905082821461212a5760008160008581526020019081526020016000205490508082600085815260200190815260200160002081905550826007600083815260200190815260200160002081905550505b6007600085815260200190815260200160002060009055806000848152602001908152602001600020600090555050505050565b60006001600880549050612172919061304a565b90506000600960008481526020019081526020016000205490506000600883815481106121a2576121a1612c11565b5b9060005260206000200154905080600883815481106121c4576121c3612c11565b5b9060005260206000200181905550816009600083815260200190815260200160002081905550600960008581526020019081526020016000206000905560088054806122135761221261307e565b5b6001900381819060005260206000200160009055905550505050565b6000600161223c84610ccb565b612246919061304a565b905081600660008573ffffffffffffffffffffffffffffffffffffffff1673ffffffffffffffffffffffffffffffffffffffff168152602001908152602001600020600083815260200190815260200160002081905550806007600084815260200190815260200160002081905550505050565b6122c583838361237e565b61237957600073ffffffffffffffffffffffffffffffffffffffff168373ffffffffffffffffffffffffffffffffffffffff160361233a57806040517f7e27328900000000000000000000000000000000000000000000000000000000815260040161233191906126fa565b60405180910390fd5b81816040517f177e802f000000000000000000000000000000000000000000000000000000008152600401612370929190612be8565b60405180910390fd5b505050565b60008073ffffffffffffffffffffffffffffffffffffffff168373ffffffffffffffffffffffffffffffffffffffff161415801561243657508273ffffffffffffffffffffffffffffffffffffffff168473ffffffffffffffffffffffffffffffffffffffff1614806123f757506123f6848461117a565b5b8061243557508273ffffffffffffffffffffffffffffffffffffffff1661241d83611424565b73ffffffffffffffffffffffffffffffffffffffff16145b5b90509392505050565b6000604051905090565b600080fd5b600080fd5b60007fffffffff0000000000000000000000000000000000000000000000000000000082169050919050565b61248881612453565b811461249357600080fd5b50565b6000813590506124a58161247f565b92915050565b6000602082840312156124c1576124c0612449565b5b60006124cf84828501612496565b91505092915050565b60008115159050919050565b6124ed816124d8565b82525050565b600060208201905061250860008301846124e4565b92915050565b600081519050919050565b600082825260208201905092915050565b60005b8381101561254857808201518184015260208101905061252d565b60008484015250505050565b6000601f19601f8301169050919050565b60006125708261250e565b61257a8185612519565b935061258a81856020860161252a565b61259381612554565b840191505092915050565b600060208201905081810360008301526125b88184612565565b905092915050565b6000819050919050565b6125d3816125c0565b81146125de57600080fd5b50565b6000813590506125f0816125ca565b92915050565b60006020828403121561260c5761260b612449565b5b600061261a848285016125e1565b91505092915050565b600073ffffffffffffffffffffffffffffffffffffffff82169050919050565b600061264e82612623565b9050919050565b61265e81612643565b82525050565b60006020820190506126796000830184612655565b92915050565b61268881612643565b811461269357600080fd5b50565b6000813590506126a58161267f565b92915050565b600080604083850312156126c2576126c1612449565b5b60006126d085828601612696565b92505060206126e1858286016125e1565b9150509250929050565b6126f4816125c0565b82525050565b600060208201905061270f60008301846126eb565b92915050565b60006020828403121561272b5761272a612449565b5b600061273984828501612696565b91505092915050565b60008060006060848603121561275b5761275a612449565b5b600061276986828701612696565b935050602061277a86828701612696565b925050604061278b868287016125e1565b9150509250925092565b600080600080608085870312156127af576127ae612449565b5b60006127bd878288016125e1565b94505060206127ce878288016125e1565b93505060406127df878288016125e1565b92505060606127f0878288016125e1565b91505092959194509250565b612805816124d8565b811461281057600080fd5b50565b600081359050612822816127fc565b92915050565b6000806040838503121561283f5761283e612449565b5b600061284d85828601612696565b925050602061285e85828601612813565b9150509250929050565b600080fd5b600080fd5b7f4e487b7100000000000000000000000000000000000000000000000000000000600052604160045260246000fd5b6128aa82612554565b810181811067ffffffffffffffff821117156128c9576128c8612872565b5b80604052505050565b60006128dc61243f565b90506128e882826128a1565b919050565b600067ffffffffffffffff82111561290857612907612872565b5b61291182612554565b9050602081019050919050565b82818337600083830152505050565b600061294061293b846128ed565b6128d2565b90508281526020810184848401111561295c5761295b61286d565b5b61296784828561291e565b509392505050565b600082601f83011261298457612983612868565b5b813561299484826020860161292d565b91505092915050565b600080600080608085870312156129b7576129b6612449565b5b60006129c587828801612696565b94505060206129d687828801612696565b93505060406129e7878288016125e1565b925050606085013567ffffffffffffffff811115612a0857612a0761244e565b5b612a148782880161296f565b91505092959194509250565b60008060408385031215612a3757612a36612449565b5b6000612a4585828601612696565b9250506020612a5685828601612696565b9150509250929050565b6000819050919050565b6000612a85612a80612a7b84612623565b612a60565b612623565b9050919050565b6000612a9782612a6a565b9050919050565b6000612aa982612a8c565b9050919050565b612ab981612a9e565b82525050565b6000602082019050612ad46000830184612ab0565b92915050565b7f4e487b7100000000000000000000000000000000000000000000000000000000600052602260045260246000fd5b60006002820490506001821680612b2157607f821691505b602082108103612b3457612b33612ada565b5b50919050565b7f4e487b7100000000000000000000000000000000000000000000000000000000600052601160045260246000fd5b6000612b74826125c0565b91507fffffffffffffffffffffffffffffffffffffffffffffffffffffffffffffffff8203612ba657612ba5612b3a565b5b600182019050919050565b6000606082019050612bc66000830186612655565b612bd360208301856126eb565b612be06040830184612655565b949350505050565b6000604082019050612bfd6000830185612655565b612c0a60208301846126eb565b9392505050565b7f4e487b7100000000000000000000000000000000000000000000000000000000600052603260045260246000fd5b7f4e4654206e6f74206f776e65642062792073656e646572000000000000000000600082015250565b6000612c76601783612519565b9150612c8182612c40565b602082019050919050565b60006020820190508181036000830152612ca581612c69565b9050919050565b6000819050919050565b6000612cd1612ccc612cc784612cac565b612a60565b6125c0565b9050919050565b612ce181612cb6565b82525050565b600081519050919050565b600082825260208201905092915050565b6000612d0e82612ce7565b612d188185612cf2565b9350612d2881856020860161252a565b612d3181612554565b840191505092915050565b600061010082019050612d52600083018b612655565b612d5f602083018a612cd8565b612d6c60408301896126eb565b612d796060830188612655565b612d866080830187612655565b612d9360a08301866126eb565b612da060c08301856126eb565b81810360e0830152612db28184612d03565b90509998505050505050505050565b600081519050612dd0816125ca565b92915050565b600060208284031215612dec57612deb612449565b5b6000612dfa84828501612dc1565b91505092915050565b6000612e0e82612643565b9050919050565b612e1e81612e03565b8114612e2957600080fd5b50565b600081519050612e3b81612e15565b92915050565b600060208284031215612e5757612e56612449565b5b6000612e6584828501612e2c565b91505092915050565b7f4e4f545f42524944474500000000000000000000000000000000000000000000600082015250565b6000612ea4600a83612519565b9150612eaf82612e6e565b602082019050919050565b60006020820190508181036000830152612ed381612e97565b9050919050565b600081519050612ee98161267f565b92915050565b600060208284031215612f0557612f04612449565b5b6000612f1384828501612eda565b91505092915050565b7f4772656574696e67206f6e6c792075706461746561626c65206279204c320000600082015250565b6000612f52601e83612519565b9150612f5d82612f1c565b602082019050919050565b60006020820190508181036000830152612f8181612f45565b9050919050565b6000612f93826125c0565b9150612f9e836125c0565b9250828201905080821115612fb657612fb5612b3a565b5b92915050565b6000608082019050612fd16000830187612655565b612fde6020830186612655565b612feb60408301856126eb565b8181036060830152612ffd8184612d03565b905095945050505050565b6000815190506130178161247f565b92915050565b60006020828403121561303357613032612449565b5b600061304184828501613008565b91505092915050565b6000613055826125c0565b9150613060836125c0565b925082820390508181111561307857613077612b3a565b5b92915050565b7f4e487b7100000000000000000000000000000000000000000000000000000000600052603160045260246000fdfe68747470733a2f2f676174657761792e70696e6174612e636c6f75642f697066732f516d66336d716b6931664d5a355335666e73704846394c4d69657a424564435162756b6e59686344414c6e693361a264697066735822122025d8cb2de8897721d2a291802d5dc4bb31d5deec23a2e1ebc079b568a3378f3e64736f6c63430008180033",
  "linkReferences": {},
  "deployedLinkReferences": {}
}