{
  "_format": "hh-sol-artifact-1",
  "contractName": "EnergyNFTMarketplace",
  "sourceName": "contracts/ENergyNFTMarketplace.sol",
  "abi": [
    {
      "inputs": [
        {
          "internalType": "address",
          "name": "target",
          "type": "address"
        }
      ],
      "name": "AddressEmptyCode",
      "type": "error"
    },
    {
      "inputs": [
        {
          "internalType": "address",
          "name": "implementation",
          "type": "address"
        }
      ],
      "name": "ERC1967InvalidImplementation",
      "type": "error"
    },
    {
      "inputs": [],
      "name": "ERC1967NonPayable",
      "type": "error"
    },
    {
      "inputs": [],
      "name": "FailedCall",
      "type": "error"
    },
    {
      "inputs": [],
      "name": "InvalidInitialization",
      "type": "error"
    },
    {
      "inputs": [],
      "name": "NotInitializing",
      "type": "error"
    },
    {
      "inputs": [
        {
          "internalType": "address",
          "name": "owner",
          "type": "address"
        }
      ],
      "name": "OwnableInvalidOwner",
      "type": "error"
    },
    {
      "inputs": [
        {
          "internalType": "address",
          "name": "account",
          "type": "address"
        }
      ],
      "name": "OwnableUnauthorizedAccount",
      "type": "error"
    },
    {
      "inputs": [],
      "name": "UUPSUnauthorizedCallContext",
      "type": "error"
    },
    {
      "inputs": [
        {
          "internalType": "bytes32",
          "name": "slot",
          "type": "bytes32"
        }
      ],
      "name": "UUPSUnsupportedProxiableUUID",
      "type": "error"
    },
    {
      "anonymous": false,
      "inputs": [
        {
          "indexed": false,
          "internalType": "uint64",
          "name": "version",
          "type": "uint64"
        }
      ],
      "name": "Initialized",
      "type": "event"
    },
    {
      "anonymous": false,
      "inputs": [
        {
          "indexed": true,
          "internalType": "uint256",
          "name": "tokenId",
          "type": "uint256"
        },
        {
          "indexed": false,
          "internalType": "address",
          "name": "seller",
          "type": "address"
        },
        {
          "indexed": false,
          "internalType": "uint256",
          "name": "priceInRewardTokens",
          "type": "uint256"
        },
        {
          "indexed": false,
          "internalType": "uint256",
          "name": "priceInEther",
          "type": "uint256"
        }
      ],
      "name": "NFTListed",
      "type": "event"
    },
    {
      "anonymous": false,
      "inputs": [
        {
          "indexed": true,
          "internalType": "uint256",
          "name": "tokenId",
          "type": "uint256"
        },
        {
          "indexed": false,
          "internalType": "address",
          "name": "buyer",
          "type": "address"
        },
        {
          "indexed": false,
          "internalType": "uint256",
          "name": "pricePaid",
          "type": "uint256"
        },
        {
          "indexed": false,
          "internalType": "bool",
          "name": "paidWithEther",
          "type": "bool"
        }
      ],
      "name": "NFTSold",
      "type": "event"
    },
    {
      "anonymous": false,
      "inputs": [
        {
          "indexed": true,
          "internalType": "uint256",
          "name": "tokenId",
          "type": "uint256"
        },
        {
          "indexed": true,
          "internalType": "address",
          "name": "owner",
          "type": "address"
        },
        {
          "indexed": false,
          "internalType": "uint256",
          "name": "withdrawalId",
          "type": "uint256"
        }
      ],
      "name": "NFTTransferredToL1",
      "type": "event"
    },
    {
      "anonymous": false,
      "inputs": [
        {
          "indexed": true,
          "internalType": "uint256",
          "name": "tokenId",
          "type": "uint256"
        },
        {
          "indexed": true,
          "internalType": "address",
          "name": "owner",
          "type": "address"
        },
        {
          "indexed": false,
          "internalType": "uint256",
          "name": "ticketId",
          "type": "uint256"
        }
      ],
      "name": "NFTTransferredToL2",
      "type": "event"
    },
    {
      "anonymous": false,
      "inputs": [
        {
          "indexed": true,
          "internalType": "address",
          "name": "previousOwner",
          "type": "address"
        },
        {
          "indexed": true,
          "internalType": "address",
          "name": "newOwner",
          "type": "address"
        }
      ],
      "name": "OwnershipTransferred",
      "type": "event"
    },
    {
      "anonymous": false,
      "inputs": [
        {
          "indexed": true,
          "internalType": "address",
          "name": "user",
          "type": "address"
        },
        {
          "indexed": false,
          "internalType": "uint256",
          "name": "amount",
          "type": "uint256"
        }
      ],
      "name": "RewardBurned",
      "type": "event"
    },
    {
      "anonymous": false,
      "inputs": [
        {
          "indexed": true,
          "internalType": "address",
          "name": "implementation",
          "type": "address"
        }
      ],
      "name": "Upgraded",
      "type": "event"
    },
    {
      "inputs": [],
      "name": "UPGRADE_INTERFACE_VERSION",
      "outputs": [
        {
          "internalType": "string",
          "name": "",
          "type": "string"
        }
      ],
      "stateMutability": "view",
      "type": "function"
    },
    {
      "inputs": [
        {
          "internalType": "uint256",
          "name": "tokenId",
          "type": "uint256"
        }
      ],
      "name": "buyWithEther",
      "outputs": [],
      "stateMutability": "payable",
      "type": "function"
    },
    {
      "inputs": [
        {
          "internalType": "uint256",
          "name": "tokenId",
          "type": "uint256"
        }
      ],
      "name": "buyWithRewardTokens",
      "outputs": [],
      "stateMutability": "nonpayable",
      "type": "function"
    },
    {
      "inputs": [],
      "name": "inbox",
      "outputs": [
        {
          "internalType": "contract IInbox",
          "name": "",
          "type": "address"
        }
      ],
      "stateMutability": "view",
      "type": "function"
    },
    {
      "inputs": [
        {
          "internalType": "address",
          "name": "_nftContractL1",
          "type": "address"
        },
        {
          "internalType": "address",
          "name": "_nftContractL2",
          "type": "address"
        },
        {
          "internalType": "address",
          "name": "_rewardToken",
          "type": "address"
        },
        {
          "internalType": "address",
          "name": "_inbox",
          "type": "address"
        }
      ],
      "name": "initialize",
      "outputs": [],
      "stateMutability": "nonpayable",
      "type": "function"
    },
    {
      "inputs": [
        {
          "internalType": "uint256",
          "name": "tokenId",
          "type": "uint256"
        },
        {
          "internalType": "uint256",
          "name": "priceInRewardTokens",
          "type": "uint256"
        },
        {
          "internalType": "uint256",
          "name": "priceInEther",
          "type": "uint256"
        }
      ],
      "name": "listNFT",
      "outputs": [],
      "stateMutability": "nonpayable",
      "type": "function"
    },
    {
      "inputs": [
        {
          "internalType": "uint256",
          "name": "",
          "type": "uint256"
        }
      ],
      "name": "listings",
      "outputs": [
        {
          "internalType": "uint256",
          "name": "tokenId",
          "type": "uint256"
        },
        {
          "internalType": "address",
          "name": "seller",
          "type": "address"
        },
        {
          "internalType": "uint256",
          "name": "priceInRewardTokens",
          "type": "uint256"
        },
        {
          "internalType": "uint256",
          "name": "priceInEther",
          "type": "uint256"
        },
        {
          "internalType": "bool",
          "name": "forSale",
          "type": "bool"
        }
      ],
      "stateMutability": "view",
      "type": "function"
    },
    {
      "inputs": [],
      "name": "nftContractL1",
      "outputs": [
        {
          "internalType": "contract CommunitasNFTL1",
          "name": "",
          "type": "address"
        }
      ],
      "stateMutability": "view",
      "type": "function"
    },
    {
      "inputs": [],
      "name": "nftContractL2",
      "outputs": [
        {
          "internalType": "contract CommunitasNFTL2",
          "name": "",
          "type": "address"
        }
      ],
      "stateMutability": "view",
      "type": "function"
    },
    {
      "inputs": [],
      "name": "owner",
      "outputs": [
        {
          "internalType": "address",
          "name": "",
          "type": "address"
        }
      ],
      "stateMutability": "view",
      "type": "function"
    },
    {
      "inputs": [],
      "name": "proxiableUUID",
      "outputs": [
        {
          "internalType": "bytes32",
          "name": "",
          "type": "bytes32"
        }
      ],
      "stateMutability": "view",
      "type": "function"
    },
    {
      "inputs": [],
      "name": "renounceOwnership",
      "outputs": [],
      "stateMutability": "nonpayable",
      "type": "function"
    },
    {
      "inputs": [],
      "name": "rewardToken",
      "outputs": [
        {
          "internalType": "contract IERC20",
          "name": "",
          "type": "address"
        }
      ],
      "stateMutability": "view",
      "type": "function"
    },
    {
      "inputs": [
        {
          "internalType": "uint256",
          "name": "tokenId",
          "type": "uint256"
        }
      ],
      "name": "transferNFTToL1",
      "outputs": [],
      "stateMutability": "nonpayable",
      "type": "function"
    },
    {
      "inputs": [
        {
          "internalType": "uint256",
          "name": "tokenId",
          "type": "uint256"
        },
        {
          "internalType": "uint256",
          "name": "maxSubmissionCost",
          "type": "uint256"
        },
        {
          "internalType": "uint256",
          "name": "maxGas",
          "type": "uint256"
        },
        {
          "internalType": "uint256",
          "name": "gasPriceBid",
          "type": "uint256"
        }
      ],
      "name": "transferNFTToL2",
      "outputs": [],
      "stateMutability": "payable",
      "type": "function"
    },
    {
      "inputs": [
        {
          "internalType": "address",
          "name": "newOwner",
          "type": "address"
        }
      ],
      "name": "transferOwnership",
      "outputs": [],
      "stateMutability": "nonpayable",
      "type": "function"
    },
    {
      "inputs": [
        {
          "internalType": "address",
          "name": "newImplementation",
          "type": "address"
        },
        {
          "internalType": "bytes",
          "name": "data",
          "type": "bytes"
        }
      ],
      "name": "upgradeToAndCall",
      "outputs": [],
      "stateMutability": "payable",
      "type": "function"
    }
  ],
  "bytecode": "0x60a06040523073ffffffffffffffffffffffffffffffffffffffff1660809073ffffffffffffffffffffffffffffffffffffffff1681525034801561004357600080fd5b5060805161294961006d600039600081816114ed0152818161154201526116fd01526129496000f3fe6080604052600436106100fe5760003560e01c80638da5cb5b11610095578063de74e57b11610064578063de74e57b146102c0578063f2fde38b14610301578063f7c618c11461032a578063f8c8765e14610355578063fb0e722b1461037e576100fe565b80638da5cb5b14610216578063ad3cb1cc14610241578063b0136c8d1461026c578063bf72b0fd14610295576100fe565b8063550b9c11116100d1578063550b9c111461019e578063619289f2146101ba578063635646d0146101e3578063715018a6146101ff576100fe565b80631acd4c8f14610103578063368b27de1461012e5780634f1ef2861461015757806352d1902d14610173575b600080fd5b34801561010f57600080fd5b506101186103a9565b6040516101259190611df1565b60405180910390f35b34801561013a57600080fd5b5061015560048036038101906101509190611e56565b6103cf565b005b610171600480360381019061016c9190612007565b6107cd565b005b34801561017f57600080fd5b506101886107ec565b604051610195919061207c565b60405180910390f35b6101b860048036038101906101b39190611e56565b61081f565b005b3480156101c657600080fd5b506101e160048036038101906101dc9190611e56565b610a4e565b005b6101fd60048036038101906101f89190612097565b610c4c565b005b34801561020b57600080fd5b50610214610e4d565b005b34801561022257600080fd5b5061022b610e61565b604051610238919061210d565b60405180910390f35b34801561024d57600080fd5b50610256610e99565b60405161026391906121a7565b60405180910390f35b34801561027857600080fd5b50610293600480360381019061028e91906121c9565b610ed2565b005b3480156102a157600080fd5b506102aa6110f5565b6040516102b7919061223d565b60405180910390f35b3480156102cc57600080fd5b506102e760048036038101906102e29190611e56565b611119565b6040516102f8959493929190612282565b60405180910390f35b34801561030d57600080fd5b50610328600480360381019061032391906122d5565b61117c565b005b34801561033657600080fd5b5061033f611202565b60405161034c9190612323565b60405180910390f35b34801561036157600080fd5b5061037c6004803603810190610377919061233e565b611228565b005b34801561038a57600080fd5b506103936114c5565b6040516103a091906123c6565b60405180910390f35b600160009054906101000a900473ffffffffffffffffffffffffffffffffffffffff1681565b60006004600083815260200190815260200160002090508060040160009054906101000a900460ff16610437576040517f08c379a000000000000000000000000000000000000000000000000000000000815260040161042e9061242d565b60405180910390fd5b8060020154600260009054906101000a900473ffffffffffffffffffffffffffffffffffffffff1673ffffffffffffffffffffffffffffffffffffffff166370a08231336040518263ffffffff1660e01b8152600401610497919061210d565b602060405180830381865afa1580156104b4573d6000803e3d6000fd5b505050506040513d601f19601f820116820180604052508101906104d89190612462565b1015610519576040517f08c379a0000000000000000000000000000000000000000000000000000000008152600401610510906124db565b60405180910390fd5b600260009054906101000a900473ffffffffffffffffffffffffffffffffffffffff1673ffffffffffffffffffffffffffffffffffffffff166323b872dd333084600201546040518463ffffffff1660e01b815260040161057c939291906124fb565b6020604051808303816000875af115801561059b573d6000803e3d6000fd5b505050506040513d601f19601f820116820180604052508101906105bf919061255e565b50600260009054906101000a900473ffffffffffffffffffffffffffffffffffffffff1673ffffffffffffffffffffffffffffffffffffffff1663a9059cbb600083600201546040518363ffffffff1660e01b815260040161062292919061258b565b6020604051808303816000875af1158015610641573d6000803e3d6000fd5b505050506040513d601f19601f82011682018060405250810190610665919061255e565b5060008054906101000a900473ffffffffffffffffffffffffffffffffffffffff1673ffffffffffffffffffffffffffffffffffffffff166323b872dd8260010160009054906101000a900473ffffffffffffffffffffffffffffffffffffffff1633856040518463ffffffff1660e01b81526004016106e7939291906124fb565b600060405180830381600087803b15801561070157600080fd5b505af1158015610715573d6000803e3d6000fd5b5050505060008160040160006101000a81548160ff021916908315150217905550817f5218368a6dd79ad7753654b9a5d8a9cfb007eb40d595f81cfbf52342946173c9338360020154600060405161076f939291906125b4565b60405180910390a23373ffffffffffffffffffffffffffffffffffffffff167fab2b9c7194be4075c65475b51857be6f6e048482a1c3a5344da2128482656e4282600201546040516107c191906125eb565b60405180910390a25050565b6107d56114eb565b6107de826115d1565b6107e882826115dc565b5050565b60006107f66116fb565b7f360894a13ba1a3210667c828492db98dca3e2076cc3735a920a3ca505d382bbc60001b905090565b60006004600083815260200190815260200160002090508060040160009054906101000a900460ff16610887576040517f08c379a000000000000000000000000000000000000000000000000000000000815260040161087e9061242d565b60405180910390fd5b80600301543410156108ce576040517f08c379a00000000000000000000000000000000000000000000000000000000081526004016108c590612652565b60405180910390fd5b8060010160009054906101000a900473ffffffffffffffffffffffffffffffffffffffff1673ffffffffffffffffffffffffffffffffffffffff166108fc349081150290604051600060405180830381858888f19350505050158015610938573d6000803e3d6000fd5b5060008054906101000a900473ffffffffffffffffffffffffffffffffffffffff1673ffffffffffffffffffffffffffffffffffffffff166323b872dd8260010160009054906101000a900473ffffffffffffffffffffffffffffffffffffffff1633856040518463ffffffff1660e01b81526004016109ba939291906124fb565b600060405180830381600087803b1580156109d457600080fd5b505af11580156109e8573d6000803e3d6000fd5b5050505060008160040160006101000a81548160ff021916908315150217905550817f5218368a6dd79ad7753654b9a5d8a9cfb007eb40d595f81cfbf52342946173c93383600301546001604051610a42939291906125b4565b60405180910390a25050565b3373ffffffffffffffffffffffffffffffffffffffff16600160009054906101000a900473ffffffffffffffffffffffffffffffffffffffff1673ffffffffffffffffffffffffffffffffffffffff16636352211e836040518263ffffffff1660e01b8152600401610ac091906125eb565b602060405180830381865afa158015610add573d6000803e3d6000fd5b505050506040513d601f19601f82011682018060405250810190610b019190612687565b73ffffffffffffffffffffffffffffffffffffffff1614610b57576040517f08c379a0000000000000000000000000000000000000000000000000000000008152600401610b4e90612700565b60405180910390fd5b6000600160009054906101000a900473ffffffffffffffffffffffffffffffffffffffff1673ffffffffffffffffffffffffffffffffffffffff16636704f4fb836040518263ffffffff1660e01b8152600401610bb491906125eb565b6020604051808303816000875af1158015610bd3573d6000803e3d6000fd5b505050506040513d601f19601f82011682018060405250810190610bf79190612462565b90503373ffffffffffffffffffffffffffffffffffffffff16827f6d858221bf0c9d1d6915b3f74affee2bc6a47d0206a0d978056796195358a3c183604051610c4091906125eb565b60405180910390a35050565b3373ffffffffffffffffffffffffffffffffffffffff1660008054906101000a900473ffffffffffffffffffffffffffffffffffffffff1673ffffffffffffffffffffffffffffffffffffffff16636352211e866040518263ffffffff1660e01b8152600401610cbc91906125eb565b602060405180830381865afa158015610cd9573d6000803e3d6000fd5b505050506040513d601f19601f82011682018060405250810190610cfd9190612687565b73ffffffffffffffffffffffffffffffffffffffff1614610d53576040517f08c379a0000000000000000000000000000000000000000000000000000000008152600401610d4a90612700565b60405180910390fd5b60008054906101000a900473ffffffffffffffffffffffffffffffffffffffff1673ffffffffffffffffffffffffffffffffffffffff16636fddc31a34868686866040518663ffffffff1660e01b8152600401610db39493929190612720565b60206040518083038185885af1158015610dd1573d6000803e3d6000fd5b50505050506040513d601f19601f82011682018060405250810190610df69190612462565b503373ffffffffffffffffffffffffffffffffffffffff16847f850868e65fc5b0c8149dd20d9f853e3032a49bfcc643403fb76bb6ba1fd836016000604051610e3f91906127a0565b60405180910390a350505050565b610e55611782565b610e5f6000611809565b565b600080610e6c6118e0565b90508060000160009054906101000a900473ffffffffffffffffffffffffffffffffffffffff1691505090565b6040518060400160405280600581526020017f352e302e3000000000000000000000000000000000000000000000000000000081525081565b3373ffffffffffffffffffffffffffffffffffffffff1660008054906101000a900473ffffffffffffffffffffffffffffffffffffffff1673ffffffffffffffffffffffffffffffffffffffff16636352211e856040518263ffffffff1660e01b8152600401610f4291906125eb565b602060405180830381865afa158015610f5f573d6000803e3d6000fd5b505050506040513d601f19601f82011682018060405250810190610f839190612687565b73ffffffffffffffffffffffffffffffffffffffff1614610fd9576040517f08c379a0000000000000000000000000000000000000000000000000000000008152600401610fd090612700565b60405180910390fd5b6040518060a001604052808481526020013373ffffffffffffffffffffffffffffffffffffffff16815260200183815260200182815260200160011515815250600460008581526020019081526020016000206000820151816000015560208201518160010160006101000a81548173ffffffffffffffffffffffffffffffffffffffff021916908373ffffffffffffffffffffffffffffffffffffffff160217905550604082015181600201556060820151816003015560808201518160040160006101000a81548160ff021916908315150217905550905050827f36e94395fafcb0d2a9bcfcdd5cef807ab52a1f4382906992ebdc18de5f1472c43384846040516110e8939291906127bb565b60405180910390a2505050565b60008054906101000a900473ffffffffffffffffffffffffffffffffffffffff1681565b60046020528060005260406000206000915090508060000154908060010160009054906101000a900473ffffffffffffffffffffffffffffffffffffffff16908060020154908060030154908060040160009054906101000a900460ff16905085565b611184611782565b600073ffffffffffffffffffffffffffffffffffffffff168173ffffffffffffffffffffffffffffffffffffffff16036111f65760006040517f1e4fbdf70000000000000000000000000000000000000000000000000000000081526004016111ed919061210d565b60405180910390fd5b6111ff81611809565b50565b600260009054906101000a900473ffffffffffffffffffffffffffffffffffffffff1681565b6000611232611908565b905060008160000160089054906101000a900460ff1615905060008260000160009054906101000a900467ffffffffffffffff1690506000808267ffffffffffffffff161480156112805750825b9050600060018367ffffffffffffffff161480156112b5575060003073ffffffffffffffffffffffffffffffffffffffff163b145b9050811580156112c3575080155b156112fa576040517ff92ee8a900000000000000000000000000000000000000000000000000000000815260040160405180910390fd5b60018560000160006101000a81548167ffffffffffffffff021916908367ffffffffffffffff160217905550831561134a5760018560000160086101000a81548160ff0219169083151502179055505b61135333611930565b61135b611944565b886000806101000a81548173ffffffffffffffffffffffffffffffffffffffff021916908373ffffffffffffffffffffffffffffffffffffffff16021790555087600160006101000a81548173ffffffffffffffffffffffffffffffffffffffff021916908373ffffffffffffffffffffffffffffffffffffffff16021790555086600260006101000a81548173ffffffffffffffffffffffffffffffffffffffff021916908373ffffffffffffffffffffffffffffffffffffffff16021790555085600360006101000a81548173ffffffffffffffffffffffffffffffffffffffff021916908373ffffffffffffffffffffffffffffffffffffffff16021790555083156114ba5760008560000160086101000a81548160ff0219169083151502179055507fc7f505b2f371ae2175ee4913f4499e1f2633a7b5936321eed1cdaeb6115181d260016040516114b19190612841565b60405180910390a15b505050505050505050565b600360009054906101000a900473ffffffffffffffffffffffffffffffffffffffff1681565b7f000000000000000000000000000000000000000000000000000000000000000073ffffffffffffffffffffffffffffffffffffffff163073ffffffffffffffffffffffffffffffffffffffff16148061159857507f000000000000000000000000000000000000000000000000000000000000000073ffffffffffffffffffffffffffffffffffffffff1661157f61194e565b73ffffffffffffffffffffffffffffffffffffffff1614155b156115cf576040517fe07c8dba00000000000000000000000000000000000000000000000000000000815260040160405180910390fd5b565b6115d9611782565b50565b8173ffffffffffffffffffffffffffffffffffffffff166352d1902d6040518163ffffffff1660e01b8152600401602060405180830381865afa92505050801561164457506040513d601f19601f820116820180604052508101906116419190612888565b60015b61168557816040517f4c9c8ce300000000000000000000000000000000000000000000000000000000815260040161167c919061210d565b60405180910390fd5b7f360894a13ba1a3210667c828492db98dca3e2076cc3735a920a3ca505d382bbc60001b81146116ec57806040517faa1d49a40000000000000000000000000000000000000000000000000000000081526004016116e3919061207c565b60405180910390fd5b6116f683836119a5565b505050565b7f000000000000000000000000000000000000000000000000000000000000000073ffffffffffffffffffffffffffffffffffffffff163073ffffffffffffffffffffffffffffffffffffffff1614611780576040517fe07c8dba00000000000000000000000000000000000000000000000000000000815260040160405180910390fd5b565b61178a611a18565b73ffffffffffffffffffffffffffffffffffffffff166117a8610e61565b73ffffffffffffffffffffffffffffffffffffffff1614611807576117cb611a18565b6040517f118cdaa70000000000000000000000000000000000000000000000000000000081526004016117fe919061210d565b60405180910390fd5b565b60006118136118e0565b905060008160000160009054906101000a900473ffffffffffffffffffffffffffffffffffffffff169050828260000160006101000a81548173ffffffffffffffffffffffffffffffffffffffff021916908373ffffffffffffffffffffffffffffffffffffffff1602179055508273ffffffffffffffffffffffffffffffffffffffff168173ffffffffffffffffffffffffffffffffffffffff167f8be0079c531659141344cd1fd0a4f28419497f9722a3daafe3b4186f6b6457e060405160405180910390a3505050565b60007f9016d09d72d40fdae2fd8ceac6b6234c7706214fd39c1cd1e609a0528c199300905090565b60007ff0c57e16840df040f15088dc2f81fe391c3923bec73e23a9662efc9c229c6a00905090565b611938611a20565b61194181611a60565b50565b61194c611a20565b565b600061197c7f360894a13ba1a3210667c828492db98dca3e2076cc3735a920a3ca505d382bbc60001b611ae6565b60000160009054906101000a900473ffffffffffffffffffffffffffffffffffffffff16905090565b6119ae82611af0565b8173ffffffffffffffffffffffffffffffffffffffff167fbc7cd75a20ee27fd9adebab32041f755214dbc6bffa90cc0225b39da2e5c2d3b60405160405180910390a2600081511115611a0b57611a058282611bbd565b50611a14565b611a13611c41565b5b5050565b600033905090565b611a28611c7e565b611a5e576040517fd7e6bcf800000000000000000000000000000000000000000000000000000000815260040160405180910390fd5b565b611a68611a20565b600073ffffffffffffffffffffffffffffffffffffffff168173ffffffffffffffffffffffffffffffffffffffff1603611ada5760006040517f1e4fbdf7000000000000000000000000000000000000000000000000000000008152600401611ad1919061210d565b60405180910390fd5b611ae381611809565b50565b6000819050919050565b60008173ffffffffffffffffffffffffffffffffffffffff163b03611b4c57806040517f4c9c8ce3000000000000000000000000000000000000000000000000000000008152600401611b43919061210d565b60405180910390fd5b80611b797f360894a13ba1a3210667c828492db98dca3e2076cc3735a920a3ca505d382bbc60001b611ae6565b60000160006101000a81548173ffffffffffffffffffffffffffffffffffffffff021916908373ffffffffffffffffffffffffffffffffffffffff16021790555050565b60606000808473ffffffffffffffffffffffffffffffffffffffff1684604051611be791906128fc565b600060405180830381855af49150503d8060008114611c22576040519150601f19603f3d011682016040523d82523d6000602084013e611c27565b606091505b5091509150611c37858383611c9e565b9250505092915050565b6000341115611c7c576040517fb398979f00000000000000000000000000000000000000000000000000000000815260040160405180910390fd5b565b6000611c88611908565b60000160089054906101000a900460ff16905090565b606082611cb357611cae82611d2d565b611d25565b60008251148015611cdb575060008473ffffffffffffffffffffffffffffffffffffffff163b145b15611d1d57836040517f9996b315000000000000000000000000000000000000000000000000000000008152600401611d14919061210d565b60405180910390fd5b819050611d26565b5b9392505050565b600081511115611d405780518082602001fd5b6040517fd6bda27500000000000000000000000000000000000000000000000000000000815260040160405180910390fd5b600073ffffffffffffffffffffffffffffffffffffffff82169050919050565b6000819050919050565b6000611db7611db2611dad84611d72565b611d92565b611d72565b9050919050565b6000611dc982611d9c565b9050919050565b6000611ddb82611dbe565b9050919050565b611deb81611dd0565b82525050565b6000602082019050611e066000830184611de2565b92915050565b6000604051905090565b600080fd5b600080fd5b6000819050919050565b611e3381611e20565b8114611e3e57600080fd5b50565b600081359050611e5081611e2a565b92915050565b600060208284031215611e6c57611e6b611e16565b5b6000611e7a84828501611e41565b91505092915050565b6000611e8e82611d72565b9050919050565b611e9e81611e83565b8114611ea957600080fd5b50565b600081359050611ebb81611e95565b92915050565b600080fd5b600080fd5b6000601f19601f8301169050919050565b7f4e487b7100000000000000000000000000000000000000000000000000000000600052604160045260246000fd5b611f1482611ecb565b810181811067ffffffffffffffff82111715611f3357611f32611edc565b5b80604052505050565b6000611f46611e0c565b9050611f528282611f0b565b919050565b600067ffffffffffffffff821115611f7257611f71611edc565b5b611f7b82611ecb565b9050602081019050919050565b82818337600083830152505050565b6000611faa611fa584611f57565b611f3c565b905082815260208101848484011115611fc657611fc5611ec6565b5b611fd1848285611f88565b509392505050565b600082601f830112611fee57611fed611ec1565b5b8135611ffe848260208601611f97565b91505092915050565b6000806040838503121561201e5761201d611e16565b5b600061202c85828601611eac565b925050602083013567ffffffffffffffff81111561204d5761204c611e1b565b5b61205985828601611fd9565b9150509250929050565b6000819050919050565b61207681612063565b82525050565b6000602082019050612091600083018461206d565b92915050565b600080600080608085870312156120b1576120b0611e16565b5b60006120bf87828801611e41565b94505060206120d087828801611e41565b93505060406120e187828801611e41565b92505060606120f287828801611e41565b91505092959194509250565b61210781611e83565b82525050565b600060208201905061212260008301846120fe565b92915050565b600081519050919050565b600082825260208201905092915050565b60005b83811015612162578082015181840152602081019050612147565b60008484015250505050565b600061217982612128565b6121838185612133565b9350612193818560208601612144565b61219c81611ecb565b840191505092915050565b600060208201905081810360008301526121c1818461216e565b905092915050565b6000806000606084860312156121e2576121e1611e16565b5b60006121f086828701611e41565b935050602061220186828701611e41565b925050604061221286828701611e41565b9150509250925092565b600061222782611dbe565b9050919050565b6122378161221c565b82525050565b6000602082019050612252600083018461222e565b92915050565b61226181611e20565b82525050565b60008115159050919050565b61227c81612267565b82525050565b600060a0820190506122976000830188612258565b6122a460208301876120fe565b6122b16040830186612258565b6122be6060830185612258565b6122cb6080830184612273565b9695505050505050565b6000602082840312156122eb576122ea611e16565b5b60006122f984828501611eac565b91505092915050565b600061230d82611dbe565b9050919050565b61231d81612302565b82525050565b60006020820190506123386000830184612314565b92915050565b6000806000806080858703121561235857612357611e16565b5b600061236687828801611eac565b945050602061237787828801611eac565b935050604061238887828801611eac565b925050606061239987828801611eac565b91505092959194509250565b60006123b082611dbe565b9050919050565b6123c0816123a5565b82525050565b60006020820190506123db60008301846123b7565b92915050565b7f4e4654206e6f7420666f722073616c6500000000000000000000000000000000600082015250565b6000612417601083612133565b9150612422826123e1565b602082019050919050565b600060208201905081810360008301526124468161240a565b9050919050565b60008151905061245c81611e2a565b92915050565b60006020828403121561247857612477611e16565b5b60006124868482850161244d565b91505092915050565b7f4e6f7420656e6f7567682072657761726420746f6b656e730000000000000000600082015250565b60006124c5601883612133565b91506124d08261248f565b602082019050919050565b600060208201905081810360008301526124f4816124b8565b9050919050565b600060608201905061251060008301866120fe565b61251d60208301856120fe565b61252a6040830184612258565b949350505050565b61253b81612267565b811461254657600080fd5b50565b60008151905061255881612532565b92915050565b60006020828403121561257457612573611e16565b5b600061258284828501612549565b91505092915050565b60006040820190506125a060008301856120fe565b6125ad6020830184612258565b9392505050565b60006060820190506125c960008301866120fe565b6125d66020830185612258565b6125e36040830184612273565b949350505050565b60006020820190506126006000830184612258565b92915050565b7f4e6f7420656e6f75676820455448000000000000000000000000000000000000600082015250565b600061263c600e83612133565b915061264782612606565b602082019050919050565b6000602082019050818103600083015261266b8161262f565b9050919050565b60008151905061268181611e95565b92915050565b60006020828403121561269d5761269c611e16565b5b60006126ab84828501612672565b91505092915050565b7f4e6f74204e4654206f776e657200000000000000000000000000000000000000600082015250565b60006126ea600d83612133565b91506126f5826126b4565b602082019050919050565b60006020820190508181036000830152612719816126dd565b9050919050565b60006080820190506127356000830187612258565b6127426020830186612258565b61274f6040830185612258565b61275c6060830184612258565b95945050505050565b6000819050919050565b600061278a61278561278084612765565b611d92565b611e20565b9050919050565b61279a8161276f565b82525050565b60006020820190506127b56000830184612791565b92915050565b60006060820190506127d060008301866120fe565b6127dd6020830185612258565b6127ea6040830184612258565b949350505050565b6000819050919050565b600067ffffffffffffffff82169050919050565b600061282b612826612821846127f2565b611d92565b6127fc565b9050919050565b61283b81612810565b82525050565b60006020820190506128566000830184612832565b92915050565b61286581612063565b811461287057600080fd5b50565b6000815190506128828161285c565b92915050565b60006020828403121561289e5761289d611e16565b5b60006128ac84828501612873565b91505092915050565b600081519050919050565b600081905092915050565b60006128d6826128b5565b6128e081856128c0565b93506128f0818560208601612144565b80840191505092915050565b600061290882846128cb565b91508190509291505056fea2646970667358221220953abae381cfc7701f1e851e309762431653a866fce167bb7271153ecad087b664736f6c63430008180033",
  "linkReferences": {},
  "deployedLinkReferences": {}
}